:020000040800F2
:10000000200B002049480008490400084B04000860
:100010004D0400084F0400085104000800000000CF
:100020000000000000000000000000005304000871
:100030005504000800000000570400085904000897
:1000400063480008634800086348000863480008E4
:1000500063480008634800086348000863480008D4
:1000600063480008634800086348000863480008C4
:1000700063480008634800086348000863480008B4
:1000800063480008634800086348000863480008A4
:100090006348000863480008634800086D41000891
:1000A0006348000863480008634800086348000884
:1000B000D7440008F3030008F5440008634800082B
:1000C0006348000863480008634800086348000864
:1000D0006348000857070008634800089547000870
:1000E00063480008634800086348000800F002F80D
:1000F00000F062F80AA090E8000C82448344AAF160
:100100000107DA4501D100F057F8AFF2090EBAE85D
:100110000F0013F0010F18BFFB1A43F0010318473B
:1001200030950000509500000A444FF0000C10F884
:10013000013B13F0070408BF10F8014B1D1108BF65
:1001400010F8015B641E05D010F8016B641E01F805
:10015000016BF9D113F0080F1EBF10F8014BAD1C55
:100160000C1B09D16D1E58BF01F801CBFAD505E073
:1001700014F8016B01F8016B6D1EF9D59142D6D3CD
:10018000704700000023002400250026103A28BFF5
:1001900078C1FBD8520728BF30C148BF0B607047F9
:1001A000642905F04787782905F08087002070478B
:1001B0001FB51FBD10B510BD06F0F2F91146FFF7CF
:1001C000F7FF00F0B4F806F010FA03B4FFF7F2FFFF
:1001D00003BC00F077FA000070B586B00121022060
:1001E00004F09EFE0121042004F08FFE10208DF803
:1001F00017000820ADF8140003258DF81650854C23
:1002000005A9204604F07BFC04218DF81710ADF8F9
:10021000141005A9204604F072FC40F2E730ADF856
:100220000C0041F61F40ADF808000024ADF80E4068
:10023000ADF80A40784E02A9304604F0A5FF01222D
:100240001146304605F08BFA4FF4A06004F01CFB19
:100250001D218DF804108DF805408DF80650012100
:100260008DF8071001A804F014FB0021304605F0BA
:100270005CFA06B070BD2DE9F05F002500244FF058
:100280000108664FDFF890B1002649E0C7F88C817D
:10029000142000F0B4F9C7F88C614FF000094FF456
:1002A000FA6A11E009F101091FFA89F9142000F036
:1002B000A6F9D14508D9C7F88C81142000F09FF920
:1002C000C7F88C614FF00009D7F808010028E9D081
:1002D0000121584605F029FA641CD7F808010128C5
:1002E000FBD00021584605F020FA584605F05CFC8A
:1002F0006421484306F0EEFF0022494B06F01EFE43
:1003000006F0A4FF4FF49671884200D908460544D0
:1003100041482430068043480660642000F086F996
:10032000032CB3D10320B5FBF0F0BDE8F09F08B576
:1003300000F04EF900F098F94FF4E13000F0CCF9FC
:100340004FF4165004F0E4F903F00CFE03F058FAF1
:1003500000F09BFB02F054FA04F0E2F804F00EF80F
:1003600004F053F804F002F941F61F41002004F0B4
:100370007BF9FFF731FF0C232BA20321002003F0B0
:10038000FBFA0C232BA20421002003F0F5FA0C2326
:100390002AA20521002003F0EFFA224C0125284E65
:1003A000284FFFF768FF6060A06807F0BDFA0246BB
:1003B0000B4646210320009503F04BFB606806F0D6
:1003C00072FF02460B4640210420009503F041FBDA
:1003D000D4E90301084406F066FF32463B4606F0C6
:1003E000C9FF06F003FF02460521082003F0E4FCE4
:1003F000D7E710B5084C0121204605F0E3FB0028A3
:1004000007D00121204605F0E9FB06480168491C98
:10041000016010BD000801400004004000002142BE
:1004200000004D40000000206A69616F2064753A49
:10043000000000006A75206C693A000073643A009D
:100440000AD7A3703D0A03407047FEE7FEE7FEE7C8
:10045000FEE7704770477047704700000CB50022F8
:10046000019200925248016841F4803101604FF4DA
:10047000A063016801F4003100910199491C0191C8
:10048000009911B901999942F3D10168890302D504
:100490000121009100E000920099012930D14549E5
:1004A0000A6842F010020A600A6822F003020A6039
:1004B0000A6842F002020A60416841604168416096
:1004C000416841F480614160416821F47C114160E0
:1004D000416841F4E8114160016841F080710160B8
:1004E00001688901FCD5416821F003014160416840
:1004F00041F0020141604168C1F381010229FAD152
:100500000CBDABE710B52A48016841F0010101605C
:100510004168294A114041600168284A1140016040
:10052000016821F480210160416821F4FE014160ED
:100530004FF41F018160FFF7E4FF21494FF0006095
:10054000086010BD10B51A4A506800F00C011D4B30
:100550001D4800290ED004290ED008290ED00360B2
:100560005168194AC1F30311121D515C0268CA4057
:10057000026010BD0360F3E70360F1E7516801F426
:100580007011536803F48033022404EB914133B1BA
:1005900053689B0307D50D4B59430160E0E70B4BB4
:1005A00059430160DCE7074B59430160D8E700007D
:1005B00000100240002002400000FFF8FFFFF6FE9E
:1005C00008ED00E000127A003800002000093D002C
:1005D00010B56FF0040004F09FF92048204900682E
:1005E000B0FBF1F01F49C0B2087000EB4002C2EB53
:1005F000C0104FF6FF7202EAC000488010BD1949D2
:10060000097848434FF0E021486100238B61086975
:1006100040F0010008610869C20701D0C003FAD5A3
:10062000086920F0010008618B6170470D49498815
:1006300048434FF0E021486100238B61086940F096
:10064000010008610869C20701D0C003FAD5086932
:1006500020F0010008618B61704700003800002025
:1006600000127A004C00002038B54FF4A06004F06E
:100670000BF917208DF8000001258DF8035000209C
:100680008DF801008DF80200684604F002F925207B
:100690008DF800008DF8035002248DF801408DF88C
:1006A0000240684604F0F5F827208DF800008DF828
:1006B00003508DF801408DF80240684604F0E9F8D7
:1006C00038BD000070473B490A885206FCD5394ABC
:1006D000C1B2121D1180704730B585B004460121AA
:1006E00044F2050004F011FC4FF40070ADF8100066
:1006F00003208DF8120018208DF813002E4D04A948
:10070000284604F0FCF92815ADF8100004208DF8F7
:10071000130004A9284604F0F2F900940020ADF873
:100720000400ADF80600ADF80800ADF80C000C2090
:10073000ADF80A001F4C6946204605F09BFA0122DD
:1007400040F22551204605F01CFB0121204605F012
:100750000CFB05B030BD70B5164C40F2255120465B
:1007600005F0DCFB00280ED0204605F063FBC1B28B
:10077000124A1078030606D444064FF0000307D54A
:100780000A2901D0137070BD40F08000107070BD58
:100790000D290AD00A4D00F03F042955401CC0B273
:1007A00010703F28F3D9137070BD40F040001070F6
:1007B00070BD0000003801400008014050000020DA
:1007C000700400200220FFF71ABF08B5012108209D
:1007D00004F09BFB1820ADF8000010208DF80300FA
:1007E00003208DF8020069466B4804F088F908BDC3
:1007F00070B56948016821F470410160016841F4F5
:1008000040510160654C012020606060FFF7DAFF15
:1008100000252560FFF7D6FF656070BD10B55E4806
:10082000016821F470410160016841F440510160A8
:100830005A4C002060602060FFF7C4FF0120606018
:100840002060BDE81040BDE770B500245248016843
:1008500021F470410160016841F400410160504D94
:100860000126C5F88C61FFF7ADFFC5F89061FFF771
:10087000A9FF07E0641CE4B2FA2C03D9FFF7CEFF0E
:10088000012070BDD5F80C010028F3D1C5F8900106
:1008900070BD70B5414C002565603F48016821F48A
:1008A00070410160016841F4405101602560FFF72B
:1008B00089FF01206060FFF785FF656070BD70B53E
:1008C000364C002565603448016821F470410160B0
:1008D000016841F44051016001262660FFF772FF74
:1008E0006660FFF76FFF656070BD2DE9F04105465A
:1008F0002948016821F470410160016841F44051C8
:100900000160274E4FF00008C6F8908100240127AF
:10091000E809C6F88C016806050EC6F89071FFF765
:1009200051FFC6F89081FFF74DFF641CE4B2082C1C
:10093000EED3BDE8F0812DE9F0478146002416484A
:10094000016821F470410160016841F400410160D7
:100950000025134E00274FF00108C6F89071FFF7ED
:1009600031FFC6F890816006040ED6F80C0108B17C
:10097000641CE4B2FFF726FF6D1CEDB2082DECD32A
:10098000B9F1000F04D0FFF784FF2046BDE8F087DF
:10099000FFF795FFF9E70000000C01408C81214230
:1009A0000080214270B505460C46FFF721FFD0209C
:1009B000FFF79BFFFFF748FF18B1FFF72FFF01205C
:1009C00070BD2846FFF791FFFFF73EFF2046FFF777
:1009D0008CFFFFF739FF18B1FFF720FF012070BD32
:1009E000FFF71CFF002070BDBC2801D3012110E0DF
:1009F000622801D302210CE02A2801D3032108E058
:100A0000142801D3042104E00A2801D3052100E0C1
:100A100006211A20C6E710B504464FF47A708442C6
:100A200000D90446042C00D20424B0FBF4F0401E8C
:100A3000C1B21920FFF7B6FF6008BDE81040D3E748
:100A400010B50446FFF7D4FED020FFF74EFFFFF7A6
:100A5000FBFE2046FFF749FFFFF7F6FEFFF7C8FE53
:100A6000D120FFF742FFFFF7EFFE0020FFF763FF03
:100A70000446FFF7D3FE204610BDC006010E1C2021
:100A800090E7C006010E1B208CE710B5FFF79DFE16
:100A900080216B20FFF786FF6420FFF7C7FD002150
:100AA0006B20FFF77FFF0320FFF7EBFF0020FFF72E
:100AB000E4FFC820FFF7AFFF00213820FFF772FFE7
:100AC00000216A20FFF76EFF00212320FFF76AFF55
:100AD00080213720FFF766FF7520FFF7B1FF6828F8
:100AE00001D0012010BD01216B20FFF75BFF002129
:100AF0006C20FFF757FF6420FFF78DFF002010BD2B
:100B00002DE9F04106460F4615461C46FFF770FEDC
:100B10007006000EFFF7E9FEFFF796FE20B1FFF723
:100B20007DFE0120BDE8F0813846FFF7DEFEFFF7CD
:100B30008BFEFFF75DFE012000EB4600C0B2FFF721
:100B4000D4FEFFF781FE08E0012D0CD00120FFF755
:100B5000F2FE20706D1EEDB2641C002DF4D1FFF783
:100B60005DFE0020DEE70020FFF7E5FE2070F1E7E4
:100B700008B56B46022241216820FFF7C1FF9DF8AE
:100B800001009DF8001040EA012000B206F08BFB46
:100B90000022404B06F0D2F93F4A404B06F012F9D2
:100BA00006F0DEF83E4907F07DF807F013F800B2D2
:100BB00008BD7CB504460D4616466B460622432109
:100BC0006820FFF79DFF002814D19DF801109DF8C3
:100BD000002041EA022323809DF803109DF80220A3
:100BE00041EA022129809DF805109DF8042041EA80
:100BF000022131807CBD7CB504460D4616466B460D
:100C000006223B216820FFF77BFF002814D19DF8C6
:100C100001109DF8002041EA022323809DF8031073
:100C20009DF8022041EA022129809DF805109DF8D7
:100C3000042041EA022131807CBD2DE9F0410446C7
:100C40000F4616461D46FFF7D3FD6006000EFFF760
:100C50004CFEFFF7F9FD18B1FFF7E0FD012061E759
:100C60003846FFF742FEFFF7EFFD00240BE0285D5A
:100C7000FFF73BFEFFF7E8FD18B1FFF7CFFD0120BE
:100C800050E7641CE4B2B442F1D3FFF7C7FD002083
:100C900048E7000000407540A4703D0AD743424039
:100CA0000000C842F8B5F94C0023224694F82460AD
:100CB00006CA5D1E002E11D010B10220009000E087
:100CC00000931078C97B6B460122FFF7B6FF08B18D
:100CD0002846F8BD9DF80000607419E0A67A26B198
:100CE00028B1667C1EB10020F8BD2846F8BD10B1C1
:100CF0000120009000E000931078C97B6B46012230
:100D0000FFF79BFF08B12846F8BD9DF8000060740E
:100D10000020F8BD38B50024DC4D18E02868C27A00
:100D2000A24212D0407DA0420FD008786B4601222B
:100D30002146FFF7E5FE10B14FF0FF3038BD9DF8BA
:100D400000202146D2A005F041F9641CE4B2696894
:100D50000879A042E2D8002038BD30B40B46CB4A17
:100D60004FF0FF351168CC7A844202D0497D814230
:100D700002D1284630BC704751680A79824201D8B6
:100D80002846F7E70C780146204630BC0122FFF7E1
:100D9000B7BE38B50446BD4D95F82300A04201D139
:100DA000002038BD14B13020009001E000200090F8
:100DB000A87C20B19DF8000040F00200009095F85A
:100DC000220020B19DF8000040F0800000902868CB
:100DD0006B460122017D68680078FFF72EFF10B195
:100DE0004FF0FF3038BD85F82340002038BDF8B5FE
:100DF000044614F0700F4FF0000602D0012000905E
:100E000004E00CB1009601E0402000909F4D6B463D
:100E100001222868817C68680078FFF70EFF4FF098
:100E2000FF3710B1AE723846F8BD9DF8000020F0D3
:100E3000400028730096600601D404200090A006AC
:100E400004D49DF8000040F002000090E00604D4B5
:100E50009DF8000040F001000090200704D49DF8A8
:100E6000000040F03800009028686B460122C17CE9
:100E700068680078FFF7E1FE10B1AE723846F8BD41
:100E800024B1082C02D00020FFF783FFAC722E752E
:100E90003220FFF7CBFB0020F8BDF8B504467B4DB0
:100EA000A87CA04201D10020F8BD78484FF0FF3661
:100EB000D0E90010ACB3097900786B460122FFF746
:100EC0001FFE08B13046F8BD9DF8000020F020005C
:100ED000009028686B460122017968680078FFF766
:100EE000ACFE08B13046F8BD0320FFF79FFB02209F
:100EF000009095F8220008B18220009095F8230018
:100F000020B19DF8000040F03000009028686B464A
:100F10000122017D68680078FFF78FFEF0B330464C
:100F2000F8BDFFE7097900786B460122FFF7E8FD7D
:100F300008B13046F4E7A87AC00705D09DF8000054
:100F400040F02000009004E09DF8000020F0200018
:100F5000009028686B460122017968680078FFF7E5
:100F60006CFE08B13046DBE70320FFF75FFB95F826
:100F7000220010B18020009001E00020009095F840
:100F8000230020B19DF8000040F030000090286858
:100F90006B460122017D6868007800E004E0FFF7FD
:100FA0004CFE08B13046BBE7AC740020B8E7F8B59A
:100FB000364D4FF0FF36A87A00280CD0002400945C
:100FC00028686B460122C17B68680078FFF735FE10
:100FD00018B13046A4E73046A2E728686B460122E4
:100FE000417968680078FFF728FE08B1304697E736
:100FF00028686B460122017968680078FFF71DFEBA
:1010000008B130468CE795F8240090B30C2000908E
:1010100028686B460122017968680078FFF70DFEA9
:1010200008B130467CE73220FFF700FBC02000907B
:10103000A87AC00701D0E020009028686B46012202
:10104000017968680078FFF7F8FD08B1304667E776
:10105000687C10B10220009000E0009428686B4684
:101060000122C17B68680078FFF7E7FD10B13046C8
:1010700056E715E0009428686B46012241796868BC
:101080000078FFF7DAFDA8B3304649E758000020A2
:10109000252335783A20252335780D0A00000000F5
:1010A0000420009028686B46012201796868007866
:1010B000FFF7C3FD08B1304632E7A87C78B9A87ABB
:1010C000C0070CD06020009028686B46012201798F
:1010D00068680078FFF7B1FD20B1304620E7402076
:1010E0000090F1E73220FFF7A1FA687C18B10120E7
:1010F000009001E016E0009428686B460122C17B55
:1011000068680078FFF799FD08B1304608E728685D
:10111000FF4B0122417968680078FFF78EFD08B126
:101120003046FDE60020FBE62DE9F041002620F0E8
:101130000104F74D103D95F82400002802D000204E
:10114000BDE8F081A97A4FF0FF3839B12F7C2140FA
:101150002974A14200D0464624B901E04046EFE799
:10116000287D18B10120FFF79DFD02E00020FFF768
:1011700099FD2CB1FFF71BFF10B12F744046DFE73C
:101180003046DDE738B5E24C4FF0FF35103CA17A30
:10119000002904D0BC2804D30120009017E0284681
:1011A00038BD622802D30220009010E02A2802D322
:1011B000032000900BE0142802D30420009006E0E6
:1011C0000A2802D30520009001E006200090E07A72
:1011D0009DF80010884201D1002038BD20686B4680
:1011E0000122817860680078FFF727FD08B1284662
:1011F00038BD9DF80000E072002038BD2DE9F843AD
:1012000004464FF0FF37282C02D93846BDE8F88352
:10121000BF4D00264FF00709103D8CB10120FFF7AC
:10122000B8FD20208DF800004FF00108012C1CD0E3
:10123000052C20D88DF801800520FFF7A3FF29E0B9
:101240000020FFF7A6FD8DF800608DF8019028685A
:101250006B460222817C68680078FFF7EEFC08B1DB
:101260003846D3E72E750020D0E78DF801600520C1
:10127000FFF788FF0EE0142C06D802208DF801003D
:101280000A20FFF77FFF05E003208DF801001420FE
:10129000FFF778FF9DF8010009EB80108DF8010041
:1012A00028686B460222817C68680078FFF7C5FCDD
:1012B00008B13846AAE70820A8722E7385F8148072
:1012C0000020FFF731FF0020A0E7F8B50446904D5D
:1012D0004FF0FF37103DA87A002804D095F824007D
:1012E00018B138461CE638461AE6287D50B134B1AC
:1012F000282C04D8E0B2FFF781FF002010E6002080
:10130000FFF77CFF4FF47A76042C01D2042402E02C
:10131000B44200D93446B6FBF4F0401E0090286871
:101320006B460122417868680078FFF786FC08B1B7
:101330003846F5E59DF80000401CB6FBF0F0E8816A
:101340004008FFF71FFF0020EAE538B5704C4FF06A
:10135000FF35103CA17A002909D0022809D00428C1
:101360000AD008280BD010280CD0284638BD2846B3
:1013700038BD0020009007E00820009004E0102015
:10138000009001E018200090607A9DF80010B0EB0A
:10139000D10F01D1002038BD20686B460122C179F0
:1013A00060680078FFF749FC08B1284638BD9DF811
:1013B0000000C0086072002038BD38B5544C4FF0B2
:1013C000FF35103CA17A00290CD0FA280CD0B0F5DA
:1013D000FA7F0CD0B0F57A7F0CD0B0F5FA6F0CD054
:1013E000284638BD284638BD0020009007E0082078
:1013F000009004E01020009001E018200090207A76
:101400009DF80010B0EBD10F01D1002038BD20684D
:101410006B460122817960680078FFF70EFC08B105
:10142000284638BD9DF80000C0082072002038BD55
:101430002DE9FC4180208DF80000354C6B46103CB6
:1014400001222068817C60680078FFF7F6FB4FF08E
:10145000FF3610B13046BDE8FC816420FFF7E6F8A6
:1014600000258DF8005020686B460122817C606861
:101470000078FFF7E2FB08B13046ECE720686B46E6
:101480000622817D60680078FFF73AFB08B130469C
:10149000E1E79DF805009DF80310C007400F01F03B
:1014A000010140EA41019DF8010000F00100014303
:1014B000012761B1012906D0022906D015A004F048
:1014C00085FD3046C7E7E77414E0E57412E0206854
:1014D0006B460122C17860680078FFF711FB08B104
:1014E0003046B8E79DF8000000F00F0030B3042844
:1014F0003CD0E574FF2104F80A1F04F8021C04F82C
:10150000011C61704FF6FF70A080A171217216E07E
:1015100068000020556E737570706F72746564207A
:10152000736F6674776172652070726F647563742F
:10153000207265762025642E0A00000011E0A77055
:1015400027766576E572A572E56025616561A57609
:10155000E576A5834FF4FA60FFF72FFF58B13046C8
:1015600079E7F84804F032FD304674E7F6A004F05D
:101570002DFDE774BEE70220FFF7E7FE08B1304615
:1015800069E72A20FFF7FEFD08B1304663E7322005
:10159000FFF79BFE08B130465DE70020FFF7C4FD72
:1015A00008B1304657E70020FFF777FC08B1304616
:1015B00051E70020FFF71BFC00204CE770477CB58B
:1015C00004460E46E8484FF0FF35817A11F0700F5F
:1015D0000AD0016840686B46097B00780622FFF755
:1015E0008FFA18B128467CBD28467CBD9DF80100C5
:1015F0009DF8001040EA012020809DF803009DF82E
:10160000021040EA012060809DF805009DF804105A
:1016100040EA0120A08016B13046FFF7CFFF00203E
:101620007CBD7CB504460E46CF484FF0FF35817A2D
:10163000090701D428467CBD016840686B46497B98
:1016400000780622FFF75CFA08B128467CBD9DF8B9
:1016500001009DF8001040EA012020809DF8030061
:101660009DF8021040EA012060809DF805009DF879
:10167000041040EA0120A08016B13046FFF79EFF1B
:1016800000207CBDF8B505460F46B74C4FF0FF363D
:10169000A07A00280AD020686B460222817B60680D
:1016A0000078FFF72DFA18B1304639E4304637E4B8
:1016B0009DF801009DF8001040EA012006B217B124
:1016C0003846FFF77BFF6468E08806F0D7FA0746E4
:1016D000B4F9080006F0BAFA0446304606F0B6FA45
:1016E000214606F0B5FB394606F0B2F99F4906F0EF
:1016F00047F9102106F081FC06F06CFA2860002002
:101700000EE42DE9F04188B004464FF0FF36002C7E
:1017100002D0206818B106E0304608B010E56068D5
:1017200008B9A06850B1904D032206AB6868114615
:101730000078FFF7E5F918B13046EEE70020ECE756
:101740009DF81810082000EB111101F00F02ADF800
:1017500000209DF8191000EB111101F00F01ADF8F8
:1017600002109DF81A3000EB131000F00F00ADF8D6
:10177000040023685B00403293FBF2F20FFA82F818
:10178000ADF8108062685200403192FBF1F10FB267
:10179000ADF81270A1684900403091FBF0F004B23E
:1017A000ADF814406868062206AB00781146FFF7D2
:1017B000A7F908B13046B0E79DF819009DF8181058
:1017C00040EA0120ADF808009DF81B109DF81A2092
:1017D00041EA0222ADF80A209DF81D109DF81C3048
:1017E00041EA0321ADF80C104044ADF810003A4432
:1017F000ADF812202144ADF81410030A8DF818300A
:101800008DF81900100A8DF81A008DF81B20080AAF
:101810008DF81C008DF81D106868062206AB007854
:101820001146FFF70AFA08B1304676E7002074E760
:101830004D49097A002909D001290AD002290CD082
:1018400003290ED00021018000207047FA21018079
:10185000FAE74FF4FA710180F6E74FF47A710180EC
:10186000F2E74FF4FA610180EEE73F4A517A00292E
:1018700008D0012909D002290AD003290BD04FF042
:10188000FF3070470221017007E00421017004E07D
:101890000821017001E010210170D17C11B10178A3
:1018A00049000170002070472F49C97A072917D2D3
:1018B000DFE801F01604070A0D101300BC210180B7
:1018C00010E0622101800DE02A2101800AE014214C
:1018D000018007E00A21018004E00521018001E088
:1018E00000210180002070471F4991F82420002A20
:1018F00002D04FF0FF307047C98901800020704747
:1019000000210180481E70474FF0FF307047164994
:10191000097A002908D0012909D002290AD003290F
:101920000BD04FF0FF3070471149016007E01149BB
:10193000016004E01049016001E0104901600020ED
:10194000704700000096000848616C662073656E61
:101950007369746976697479207061727420666F36
:10196000756E642E0A0000005800002000000C4232
:101970000000034300008342333303423333834187
:10198000F94A517A002908D001290AD002290CD03D
:1019900003290ED04FF0FF3070474FF48041018093
:1019A0000AE041F69C71018006E04FF4805101800D
:1019B00002E04FF400610180D17C11B10188490837
:1019C000018000207047E849097C017000207047C1
:1019D000E549897A002902D00121017001E0002146
:1019E00001700020704738B50546DF484FF0FF34DE
:1019F000817A00290AD0016840686B46097C00782A
:101A00000222FFF77DF818B1204638BD204638BDC8
:101A10009DF801009DF8001040EA01202880002078
:101A200038BD2DE9FF4F83B0074688461E46002586
:101A30000024DFF834A34FF0FF399AF8240000287F
:101A400003D0484607B0BDE8F08F002030709AF808
:101A50000A00F0B19AF81020EAB1500600D502252C
:101A6000900601D5AD1CEDB2D00601D5AD1CEDB28E
:101A7000100701D5AD1DEDB2DAF800006B46022269
:101A8000817ADAF804000078FFF73AF828B148467E
:101A9000D8E74846D6E74846D4E79DF801009DF8C8
:101AA000001040EA012BAB4501D20020CAE7DAF86A
:101AB00004004188BBEB510F13D9DAF8001000780D
:101AC0006B46497C0122FFF71BF808B14846B9E78D
:101AD0009DF80000C00604D5FFF769FA6FF0010019
:101AE000B0E70598FFF76AFDDAF800006B462A4672
:101AF000C17ADAF804000078FFF702F808B1484626
:101B0000A0E7BBFBF5F01099401E08700020307074
:101B1000684605B39AF8101009071CD59DF8011006
:101B20009DF8002041EA0221A8F800109DF803105A
:101B30009DF8022041EA0221A8F802109DF8051044
:101B40009DF8042041EA0221A8F80410317841F000
:101B5000080131700624AC420FD09AF810104906E3
:101B60000BD50119025D497841EA022139803178AB
:101B700041F040013170A41CA4B2AC420FD09AF8DD
:101B8000101089060BD50119025D497841EA02213E
:101B90007980317841F020013170A41CA4B2AC42AC
:101BA0000DD09AF81010C90609D50119005D4978C1
:101BB00041EA0020B880307840F0100030700020FA
:101BC00040E72DE9F843054689461746664E4FF033
:101BD000FF3896F8240000280DD0B07A68B130683C
:101BE0006B460222817A70680078FEF789FF30B177
:101BF0004046BDE8F8834046FBE74046F9E79DF8DC
:101C000001009DF8001040EA0124AC4203D20020FC
:101C100038704046EDE770684188B4EB510F12D937
:101C2000316800786B46497C0122FEF769FF08B1F4
:101C30004046DEE79DF80000C00604D5FFF7B7F97F
:101C40006FF00100D5E73068EAB24B46C17A7068A0
:101C50000078FEF755FF08B14046CAE7B4FBF5F03F
:101C6000401E38700020C4E73F4981F82200002060
:101C700070472DE9FC4105463B4801AB0422406812
:101C80000D210078FEF73CFF08B107201AE49DF80B
:101C900007009DF80420C0F3011102F0E00241EAC0
:101CA000D2018DF800109DF80520C0F3810102F0EB
:101CB000E00241EAD2018DF801109DF8061000F013
:101CC000030001F0E00140EAD1008DF80200002499
:101CD0006E46305D20B1254845F82400244F0AE0C7
:101CE000002045F824000CE055F82400394605F0A2
:101CF000D9FF45F82400305D401E10F0FF0030553C
:101D0000F2D1641CE4B2032CE3D3002028E42DE9D3
:101D1000FE4F0746884600256846FFF7AAFF0024C5
:101D20006FF00F0AE946012657F8240058F82410EE
:101D3000401A00D5404205F089FF514606F05DF992
:101D400059F8241011F0FF4F16D005F081FE4FF026
:101D50007E5106F07DF8074920F00040884213DDEF
:101D600006FA04F005430FE0580000207B14AE3E55
:101D70001D5A843F295C0F3EFE490844FE498842B3
:101D800002D306FA04F00543641C032CCCDB28467E
:101D9000BDE8FE8F2DE9F84F81468A460025F748B9
:101DA0006B46032240680D210078FEF7A9FE10B1B2
:101DB0000720BDE8F88F9DF8000000F01F008DF8A7
:101DC00000009DF8010000F01F008DF801009DF853
:101DD000020000F01F008DF8020000246F464FF053
:101DE000010859F824005AF82410401A00D540423E
:101DF00005F02CFF6FF00F0106F0FFF80646385D86
:101E0000F8B1DF4ADFF87CB304E05946104605F02C
:101E100049FF0246385D401E10F0FF003855F4D1EE
:101E20001146304605F014FE4FF07E5106F010F8D2
:101E3000D54920F0004088420BDD08FA04F0054344
:101E400007E0D2483044B0F1D97F02D908FA04F053
:101E50000543641C032CC4DB2846AAE72DE9F047A0
:101E600088B005460C46924601208DF814000027E4
:101E70008DF81570DFF8048305AB0222D8F8000056
:101E8000817CD8F804000078FEF7D7FE4FF0FF39C8
:101E900018B1484608B0BDE8F087C820FEF7C6FB79
:101EA0008DF81470D8F8000005AB0122C17BD8F87A
:101EB00004000078FEF7C1FE08B14846EAE7D8F80A
:101EC000000005AB01224179D8F804000078FEF744
:101ED000B4FE08B14846DDE7D8F8000005AB0122A2
:101EE000817CD8F804000078FEF7A7FE08B14846C8
:101EF000D0E7D8F8000005AB0122C17DD8F8040076
:101F00000078FEF79AFE08B14846C3E7D8F800000B
:101F100005AB01220179D8F804000078FEF78DFEA8
:101F200008B14846B6E70C268DF81460D8F80000D2
:101F300005AB01220179D8F804000078FEF77DFE98
:101F400008B14846A6E70F20FEF770FBD8F8280036
:101F5000407A8DF81400D8F8000005AB0122817892
:101F6000D8F804000078FEF768FE08B1484691E70B
:101F7000D8F82800007A8DF81400D8F8000005ABD6
:101F800001224178D8F804000078FEF756FE08B127
:101F900048467FE7BAF1000F07D0D8F82800807ACA
:101FA00040F0E0008DF8140004E0D8F82800807AB2
:101FB0008DF81400D8F8000005AB01228179D8F81B
:101FC00004000078FEF739FE08B1484662E7BAF12E
:101FD000000F07D0D8F82800C07A40F0E0008DF854
:101FE000140002E018208DF81400D8F8000005ABAA
:101FF0000122C179D8F804000078FEF71EFE08B16E
:10200000484647E7BAF1000F02D0C820FEF70EFBA2
:1020100040208DF81400D8F8000005AB01220179AA
:10202000D8F804000078FEF708FE08B1484631E70A
:1020300078208DF81400D8F8000005AB0122417912
:10204000D8F804000078FEF7F8FD08B1484621E70B
:102050003220FEF7EBFA8DF81470D8F8000005ABCB
:1020600001224179D8F804000078FEF7E6FD08B1B6
:1020700048460FE7D8F8000005AB0222817AD8F86D
:1020800004000078FEF73CFD08B1484602E79DF8E1
:1020900015009DF8141040EA0120B0FBF6F0C6B21E
:1020A000AF606F602F60A76067602760002756E011
:1020B000D8F8000005AB0C22C17AD8F804000078EB
:1020C000FEF71EFD08B14846E4E69DF815009DF8B0
:1020D000141040EA012002B2ADF80C209DF8170060
:1020E0009DF8161040EA012000B2ADF80E009DF8F0
:1020F00019109DF8183041EA032109B2ADF810100B
:1021000023681A442260626810446060A068084432
:10211000A0609DF81B009DF81A1040EA012000B253
:10212000ADF804009DF81D109DF81C2041EA022125
:1021300009B2ADF806109DF81F209DF81E3042EA46
:10214000032212B2ADF808202B6818442860686892
:1021500008446860A8681044A8607F1CFFB2B742BA
:10216000A6D328688322C117090441EA104100045C
:1021700000230DE0666666C19A99D90058000020D8
:102180000000C84154E3853F295C0F3E0000E0BEDB
:1021900003F0F7FE3246002303F0F3FE2860686880
:1021A0008322C117090441EA10410004002303F00F
:1021B000E8FE3246002303F0E4FE6860A86883224C
:1021C000C117090441EA10410004002303F0D9FEBD
:1021D0003246002303F0D5FEA86020684FF4006566
:1021E000C117090441EA104100042A46002303F004
:1021F000C8FE3246002303F0C4FE206060682A4611
:10220000C117090441EA10410004002303F0B9FE9C
:102210003246002303F0B5FE6060A0682A46C1176D
:10222000090441EA10410004002303F0AAFE3246EB
:10223000002303F0A6FEA060002803DDA0F5803097
:10224000A06002E000F58030A060002022E638B5F2
:10225000FE4C94F82410814201D1002038BD0025A5
:10226000F0B194F82500C0B10020FEF71BFD00205E
:10227000FEF713FEE08CFFF728F8009560686B46C8
:10228000012200782321FEF7D8FC012084F82400E5
:10229000FEF708FDFEF78BFE12E04FF0FF3038BD71
:1022A0000020FEF7FFFC207C009060686B46012256
:1022B00000782321FEF7C1FC84F82450FEF777FE56
:1022C000002038BD2DE9F0438BB081468846DF4DB4
:1022D00095F82400002804D00020FFF7B8FF01265D
:1022E00000E0002602A8FFF7A3FA04A8FFF7BDFA52
:1022F0006846FFF7D9FA01A8FFF7F6FAAF7A03A804
:10230000FFF761FB0024002241464846FFF7A6FD87
:1023100010B1641C022CF6DB022C19D0002401221F
:1023200005A908A8FFF79AFD10B1641C022CF6DB82
:10233000022C0FD005A94046FFF7E9FC00F0FF088A
:1023400008A94846FFF726FDC0B2002420B104E0EA
:10235000002407E0002405E00124B8F1000F01D1BA
:1023600044F00204FF2028726872E8724FF6FF7191
:10237000E981A872287401202873BDF80800FFF7CE
:102380001CF89DF81000FEF7E0FFBDF80000FEF716
:10239000F9FEBDF80400FEF798FF3846FEF727FD6A
:1023A0009DF80C00FEF7C0FE16B10120FFF74FFFAD
:1023B0000BB02046BDE8F0832DE9F8430E46904669
:1023C0004FF0FF35B8F1000F0FD0A04FB97A71B1BF
:1023D000010A8DF80010C4B28DF80140A0197C6884
:1023E0006189884205D9284603E4284604E4284642
:1023F00004E438686B460222017E2078FEF71DFC5B
:1024000008B1284606E43868F2B24346417D786850
:102410000078FEF712FC08B128460AE4002008E420
:102420002DE9F8430E4690464FF0FF35B8F1000F06
:102430000FD0864FB97A71B1010A8DF80010C4B27D
:102440008DF80140A0197C686189884205D9284629
:1024500003E4284607E4284605E438686B46022270
:10246000017E2078FEF7E9FB08B12846BCE7386812
:10247000F2B24346417D78680078FEF741FB08B12F
:102480002846B1E70020AFE72DE9FF4F85B00546AC
:102490000E461746DFF8B4814FF0FF3998F8250053
:1024A000002803D0484609B0BDE8F08F0EB10024E3
:1024B00025E04846F7E7281B102800DD10201FFA0A
:1024C00080FA30198346024651462046FFF774FFD2
:1024D00008B14846E7E701AA51462046FFF7A0FFAA
:1024E00008B14846DFE75846524601A903F0A6FE68
:1024F00010B16FF00100D6E704EB0A0084B2AC42E1
:10250000D9D3380A8DF800008DF80170D8F8000092
:102510006B460222817ED8F804000078FEF78DFB1E
:1025200008B14846BFE7012088F825000898A8F8B8
:1025300026000020B7E7454991F8241001700020DB
:1025400070474FF0FF3070474FF0FF3070474FF04B
:10255000FF3070472DE9F84F8B4615463B4C4FF046
:10256000FF3A04F116074FF000094FF00108002D63
:102570006ED0B0F5FF5F01D9FF2605E0202801D21B
:10258000012601E0C0F34716BBF1000F01D14FF067
:10259000010B282D01D950460BE4607DF8B994F861
:1025A000240028B10020FFF752FE84F8208001E0CB
:1025B00084F820903846FFF73BF924481830FFF79D
:1025C00054F922481A30FFF76FF920481C30FFF702
:1025D0008BF9A07AA0771D481F30FFF7F4F900208F
:1025E000FEF760FB0020FEF709FE8DF800902068E2
:1025F0006B460122817860680078FEF71EFB08B107
:1026000050462AE440208DF8000020686B460122E5
:10261000C17B60680078FEF710FB78BB8DF8006026
:102620008DF801B020686B460222017A606800785C
:10263000FEF703FB10BB0520FDF7F8FF607A0726C5
:1026400006EBC0008DF80000206802E05800002072
:1026500031E0C17960686B4601220078FEF7EDFA3F
:1026600060B920208DF80000012D04D0052D06D87A
:102670008DF801800CE08DF8019009E01EE0142D2A
:1026800003D802208DF8010002E003208DF801003C
:102690009DF8010006EB80108DF8010020686B4664
:1026A0000222817C60680078FEF7C7FA30B984F8AE
:1026B0001580002070E70021785C30B3FF20207285
:1026C0006072E0724FF6FF71E181A072207484F8AD
:1026D0000C80A07FFEF78BFBE08AFEF76EFE207E6B
:1026E000FEF733FE608BFEF74DFDA08BFEF7EDFD90
:1026F000E07FFEF719FD94F8200010B10120FFF7EC
:10270000A6FD84F81590002046E7491C0C29D3D378
:10271000504641E710B588B002A905A8FFF7D2FDE1
:10272000072802D0012008B010BD01A8FFF7EFF87C
:10273000059805F08BFA01990C4605F0B3FA05F0FF
:1027400049FA0590069805F081FA214605F0AAFAA3
:1027500005F040FA0690079805F078FA214605F052
:10276000A1FA05F037FA079005A800F0E9F96846E4
:10277000FFF706F9BDF80000029941430291039961
:102780004143039104994143049102A800F058FA8F
:102790000020C8E790F90010002902DD4FF000008A
:1027A000704702DA4FF00400704790F901100029D9
:1027B00002DD4FF00100704702DA4FF0050070476C
:1027C00090F90200002802DD4FF00200704702DAA3
:1027D0004FF0060070474FF00700704700B5024603
:1027E0001046FFF7D7FF0346D01CFFF7D3FF43EA9D
:1027F000C003901DFFF7CEFF43EA801080B200BDFA
:1028000010B5FDF7E2FFFEF713FE08B10A2010BD78
:102810007820FEF7ECFAC0B208B1012010BD782094
:10282000FEF782FCC0B208B1022010BD6420FEF7A2
:102830004CFDC0B208B1032010BD00F0F7F8C0B2E3
:1028400008B1042010BD7748FFF7C8FF00F0F6F884
:10285000C0B208B1052010BD40F2731000F0B7FC03
:10286000C0B208B1062010BD642000F06BFAC0B2FF
:1028700008B1072010BDFFF74DFF0120FFF7E7FC6F
:10288000C0B208B1092010BD002010BD2DE9F74FDE
:102890008EB0054606A807A9CDE900100CAB02AA28
:1028A00008A90AA800F0DEFD10B1012011B0FBE577
:1028B000BDF81C00C0057DD5029805F0C7F96FF082
:1028C0001D04214605F099FB0646039805F0BEF964
:1028D000214605F092FB0746049805F0B7F921461A
:1028E00005F08BFB8046059805F0B0F9214605F010
:1028F00084FB81460121304605F07FFB834641463B
:1029000005F0D0F982464FF04041384605F0CAF94B
:102910000446494605F0C6F9514605F031F805F080
:1029200003F803F0EFFE4FF0663A52463E4B04F0D8
:1029300021FD04F015FA28600121404605F05DFBF9
:1029400041460D9005F0AEF905462046394605F0A2
:10295000A9F9294605F07CFA4FF07E5105F010F8F0
:1029600004F0E2FF04460D465846394605F09AF950
:10297000834649460D9805F095F9594605F000F84B
:1029800004F0D2FF22462B4604F004F95246264BAF
:1029900004F0F0FC04F0E4F90F9908604946484659
:1029A00005F080F904464146404605F07BF90546AE
:1029B000394600E033E0384605F074F98346314685
:1029C000304605F06FF9594604F0DAFF294605F064
:1029D0003FFA214605F03CFA04F0A6FF04460D46F6
:1029E0004946304605F05EF906464146384605F050
:1029F00059F9314604F0C4FF012105F0FEFA04F054
:102A000093FF22462B4604F0C5F85246064B04F0CD
:102A1000B1FC04F0A5F910990860002046E70220F7
:102A200044E700008400002066A64C40C8234FF411
:102A30008062F84940F6F630FFF726BD30B587B022
:102A40000446F5A000680490F4A000680390F4A088
:102A500000680290F3A00068019004F0030004AB4A
:102A6000195C8DF81810C4F3C102995C8DF8191027
:102A7000C4F381115B5C8DF81A3003AB185C8DF8E0
:102A80001400985C8DF81500585C8DF8160006AAA5
:102A9000032140F22640FFF78FFC4FF0FF3510B1C5
:102AA000284607B030BD05AA032140F22A40FFF7AF
:102AB00083FC08B12846F4E7029806900198059037
:102AC00060070BD59DF8180040F001008DF8180044
:102AD0009DF8140040F001008DF81400A0060BD5FD
:102AE0009DF8190040F001008DF819009DF81500BF
:102AF00040F001008DF81500E0050BD59DF81A0097
:102B000040F001008DF81A009DF8160040F0010019
:102B10008DF8160006AA03214FF48860FFF74CFCDD
:102B200008B12846BDE705AA032140F23140FFF76E
:102B300043FC08B12846B4E7BB4804810020B0E755
:102B40001FB5B949098901F0030250F8222001920A
:102B50004A0702D5019A52420192C1F3C10250F8CC
:102B6000222002928A0602D5029A52420292C1F3B0
:102B7000811250F822000390C80502D50398404204
:102B80000390AA48019981FB00218B0043EA9271CE
:102B90000191029981FB00218B0043EA927102911D
:102BA000039981FB0001800F40EA810003900198A6
:102BB000000E8DF800000198000C8DF801000198BE
:102BC000000A8DF8020001988DF803006A4604217E
:102BD0004FF47470FFF7F0FB4FF0FF3410B1204654
:102BE00004B010BD0298000E8DF800000298000C91
:102BF0008DF801000298000A8DF8020002988DF805
:102C000003006A4604214FF47570FFF7D5FB08B145
:102C10002046E5E70398000E8DF800000398000CAD
:102C20008DF801000398000A8DF8020003988DF8D2
:102C300003006A4604214FF47670FFF7BDFBCFE72F
:102C400030B587B004466846FEF79AFEBDF800002E
:102C5000420CC1037448038903F0030054F82000B8
:102C60000490580702D5049840420490C3F3C10071
:102C700054F820000590980602D50598404205902A
:102C8000C3F3811054F820000690D80502D50698A9
:102C9000404206900498A0FB0145C31703FB015373
:102CA00000FB0230830043EA947004900598A0FB77
:102CB0000145C31703FB015300FB0230830043EAC5
:102CC000947005900698A0FB0145C31703FB0151C2
:102CD00000FB0210810041EA947006900498000EF7
:102CE0008DF804000498000C8DF805000498000A83
:102CF0008DF8060004988DF807000598000E8DF8F1
:102D000008000598000C8DF809000598000A8DF858
:102D10000A0005988DF80B000698000E8DF80C003F
:102D20000698000C8DF80D000698000A8DF80E002C
:102D300006988DF80F0001AA0C214FF42570FFF7BB
:102D40003BFBAEE630B585B0044639A1D1E90002BF
:102D50008968CDE9032102904FF0FF35C82C02D9D4
:102D6000284605B030BDC820B0FBF4F1491E080A62
:102D70008DF800008DF801106A46022140F21620FD
:102D8000FFF71AFB08B12846EBE702AA0C2140F630
:102D9000C120FFF711FB08B12846E2E722488481F1
:102DA0000020DEE7204989890180002070472DE955
:102DB000FC410546084669074FF0FF3602D0B0F5E2
:102DC000C86F02D93046BDE8FC8104F057FF1B49AB
:102DD00004F03EFE07466846FEF747FD9DF80000FA
:102DE000022807D004282DD008283AD0102847D030
:102DF0003046E8E70E21384605F0FFF804F006FFFC
:102E000084B20F49384604F04DFF04F0FFFE80B253
:102E100044E00000C88000084CCD6C000CC92C00B8
:102E20003656760026466600B004002009E3CA0242
:102E3000FEF2ABC4AAF1DFDFBBAFDFDF0000484327
:102E4000000040460D21384605F0D7F804F0DEFEBC
:102E500084B2F949384604F025FF04F0D7FE80B269
:102E60001CE00C21384605F0C8F804F0CFFE84B20F
:102E7000F249384604F016FF04F0C8FE80B20DE0B7
:102E80000B21384605F0B9F804F0C0FE84B2EC49D5
:102E9000384604F007FF04F0B9FE80B2210A8DF82D
:102EA00004108DF80540010A8DF806108DF8070012
:102EB000E80701AC11D001AA02214FF4EA70FFF734
:102EC0007BFA08B130467EE7A21C02214FF49270D3
:102ED000FFF772FA08B1304675E7A80711D501AAC5
:102EE00002214FF4EC70FFF767FA08B130466AE749
:102EF000A21C02214FF49470FFF75EFA08B130462D
:102F000061E7680711D501AA02214FF4EE70FFF7BF
:102F100053FA08B1304656E7A21C02214FF49670CE
:102F2000FFF74AFA08B130464DE700204BE708B5F5
:102F300000210091C10701D030210091810704D503
:102F40009DF8001041F00C010091400704D59DF858
:102F5000000040F0030000906A4601214FF4A47085
:102F6000FFF72AFA08BD08B500280BD0042800D9BD
:102F70000420401E00906A46012140F24F10FFF7E6
:102F80001BFA08BD0120F4E708B50521B0FBF1F0FC
:102F9000010A8DF800108DF801006A4602214FF4F5
:102FA000EF70FFF709FA08BD08B50521B0FBF1F095
:102FB000010A8DF800108DF801006A4602214FF4D5
:102FC000ED70FFF7F9F908BD08B54FF47A7290FB80
:102FD000F2F04843010E8DF80010010C8DF801103D
:102FE000010A8DF802108DF803006A4604214FF49F
:102FF000AE70FFF7E1F908BD08B50521B0FBF1F0AF
:10300000010A8DF800108DF801006A4602214FF484
:10301000AD70FFF7D1F908BD08B50521B0FBF1F09F
:10302000010A8DF800108DF801006A4602214FF464
:10303000AC70FFF7C1F908BD38B504464FF0FF3555
:10304000002C08D06A4604214FF45870FFF7E8F9C5
:1030500018B1284638BD284638BD9DF803009DF8B4
:1030600000109DF8022040EA01609DF8011009045B
:1030700041EA022108432060002038BD08B5010E56
:103080008DF80010010C8DF80110010A8DF8021066
:103090008DF803006A4604214FF45870FFF78CF94D
:1030A00008BD38B504464FF0FF35002C08D06A46FD
:1030B00004214FF47170FFF7B3F918B1284638BDF9
:1030C000284638BD9DF803009DF800109DF80220A9
:1030D00040EA01619DF80100000440EA022001433A
:1030E00001EB810080002060002038BD08B514216C
:1030F000B0FBF1F0010E8DF80010010C8DF80110FD
:10310000010A8DF802108DF803006A4604214FF47D
:103110007170FFF751F908BD08B500280CD02020C8
:103120008DF8000028208DF8010030208DF8020075
:1031300038208DF8030004E0A3220421684603F040
:10314000C8F86A46042140F69E20FFF735F9FDF7DE
:103150002EFF08BD08B500280CD0C0208DF8000057
:10316000C2208DF80100C4208DF80200C6208DF821
:10317000030004E08B220421684603F0AAF86A46A3
:10318000042140F69820FFF717F9FDF710FF08BD5E
:103190000EB54FF4976300280CD02AA0D0E9001296
:1031A0008068CDE9001202906A4609211846FFF7AF
:1031B00003F90EBD26A0D0E900128068CDE9001207
:1031C00002906A4609211846FFF7F6F80EBD3EB593
:1031D000044602208DF80000CA208DF80100E3208B
:1031E0008DF8020009208DF803006A46042168204A
:1031F000FFF7E2F8A3208DF80000610609D5C02191
:103200008DF80110C8218DF80210C2218DF803102D
:1032100005E08DF801008DF802008DF8030014F42C
:10322000C07F1BD0C4218DF80410CC218DF805106F
:10323000C6218DF8061017E00000C045000040458B
:103240000000C044B8AAB38DB4980D355D000000ED
:10325000B8AAAAAAB088C3C5C70000008DF80400A8
:103260008DF805008DF806008DF807008DF8080030
:103270008DF809006A460A2140F6A720FFF79CF85E
:10328000A0074FF0D80503D020208DF8000001E002
:103290008DF800506A46012140F6B620FFF78CF801
:1032A000A00603D50120FFF773FF02E00020FFF71F
:1032B0006FFF14F4C07F20D0E0050CD5B2208DF84C
:1032C00000008B208DF80100B6208DF802009B20B5
:1032D0008DF803000BE0B0208DF8000080208DF801
:1032E0000100B4208DF8020090208DF803006A469A
:1032F000042140F6A220FFF75FF8E0074FF40B63CC
:1033000023D0F8208DF800006A4601211846FFF707
:1033100053F8FA210720FFF74AFD0720FFF707FEC1
:103320000120FFF720FE6420FFF72EFE4FF4FA7015
:10333000FFF73AFEC821AF48FFF746FE2820FFF707
:103340005BFE0A20FFF768FE06E08DF800506A4633
:1033500001211846FFF730F8A00703D5D9208DF8D2
:10336000000001E08DF800506A46012140F23D70F6
:10337000FFF722F8600703D50120FFF7EBFE02E01C
:103380000020FFF7E7FEE00603D50120FFF7C4FEAB
:1033900002E00020FFF7C0FE974D44F0080068816E
:1033A000FDF705FE0020A873600601D50620A8736E
:1033B00014F4C07F02D0A87B801DA87314F0140FF2
:1033C00002D0A87B1030A873A00702D0A87B001DF4
:1033D000A87300203EBD88494989018000207047BC
:1033E00070B50446E07800F0C00500F03F00617859
:1033F000814EC90707D0C30800F00701491C326895
:103400000AB1184690476078000703D5716809B182
:10341000A8098847002070BD00B587B077A1D1E921
:1034200000238968CDE90423069177A1D1E900231F
:103430008968CDE90123039140F6822301280BD04E
:10344000022803D04FF0FF3007B000BD04AA0B21C3
:103450001846FEF7B1FFF7E701AA0B211846FEF761
:10346000ABFFF1E72DE9FF4F8DB01646DDE91A52AB
:10347000074688460024A146A5F80090DFF878B1F9
:1034800005A99BF80E00FEF79CFB4FF0FF3A18B120
:10349000504611B0BDE8F08FBBF80A3013F0140F9E
:1034A00061D09DF817009DF814109DF8162040EA91
:1034B00001609DF81510090441EA022108433060BB
:1034C0009DF81B109DF818209DF81A4041EA0261F2
:1034D0009DF81920120442EA0422114371609DF8FC
:1034E0001F209DF81C409DF81EC042EA04629DF812
:1034F0001D40240444EA0C242243B2609DF823407A
:103500009DF820C09DF822B044EA0C6C9DF8214043
:10351000240444EA0B244CEA040CC6F80CC0102422
:103520000014019008140290101403904FEA2C40EC
:10353000049001980299404301FB01010398049A09
:10354000404302FB02000844A0F17060B0F1007F2C
:1035500005D9FDF72CFDA5F80090504699E728887D
:1035600040F480702880590605A818D50219065D18
:10357000517841EA0621A8F80010D178967841EAFE
:103580000621A8F802105179127941EA0221A8F81F
:103590000410A41DE4B2298841F00801298013F425
:1035A000C07F15D00119065D4A7842EA06223A80AA
:1035B000CA788E7842EA06227A804A79097942EA04
:1035C0000121B980A41DE4B2298841F0700129804D
:1035D000990702D02044FFF703FF1098FDF7EEFF94
:1035E000002056E7044908600020704702494860FF
:1035F0000020704709E3CA02B0040020D8B1B9F333
:103600008BA391B609B4D900DAB1B9F38BA391B603
:10361000DAB4DA0070B5FA4D4FF4807421462846CA
:1036200001F0DCFA66003146284601F0D7FA31464F
:10363000284601F0D5FA21462846BDE8704001F041
:10364000CFBA70B5EE4C4FF48071204601F0C6FA47
:1036500065152946204601F0C3FA29462046BDE8F3
:10366000704001F0BBBA70B5E54D4FF4807421464F
:10367000284601F0B3FA21462846BDE8704001F023
:10368000AFBA2DE9F0410446DD4F4FF48076314664
:10369000384601F0A5FA00254FF4007804F08000C8
:1036A000802813D04146384601F09AFA6006040E8D
:1036B0003146384601F092FA3146384601F090FA28
:1036C0006D1CEDB2082DE9D3BDE8F08141463846C6
:1036D00001F084FAEAE710B50446FFF79BFF782073
:1036E000FFF7CFFFFFF7BFFF0020FFF7CAFFFFF78D
:1036F000BAFF2046FFF7C5FFFFF7B5FFBDE8104052
:103700009FE710B50446FFF785FF7820FFF7B9FF64
:10371000FFF7A9FF4020FFF7B4FFFFF7A4FF204603
:10372000FFF7AFFFFFF79FFFBDE8104089E70029D3
:1037300001D0C0B2E5E7C0B2CDE770B506460025BE
:10374000002105F1B000FFF7F2FF00210846FFF766
:10375000EEFF00211020FFF7EAFF00240121304690
:10376000FFF7E5FF641CE4B2802CF7D36D1CEDB2CB
:10377000082DE5D370BD002808D041F6650211463A
:10378000491E0029FCD1401E0028F8D1704704E0F2
:103790000021491CC9B27B29FBD3401E411CF7D133
:1037A000704710B5044608460021B030FFF7BFFF50
:1037B000102040EA14100021FFF7B9FF04F00F00B9
:1037C000BDE810400021B2E710B500218D20FFF7C1
:1037D000AEFF00211420FFF7AAFF0021BDE8104032
:1037E000AF20A4E710B500218D20FFF7A0FF002136
:1037F0001020FFF79CFF0021BDE81040AE2096E7A7
:1038000070B50025002105F1B000FFF790FF002101
:103810000846FFF78CFF00211020FFF788FF0024E7
:1038200001210020FFF783FF641CE4B2802CF7D352
:103830006D1CEDB2082DE5D370BD70B500250021DB
:1038400005F1B000FFF773FF00210846FFF76FFF97
:1038500000211020FFF76BFF002401210846FFF72D
:1038600066FF641CE4B2802CF7D36D1CEDB2082D0A
:10387000E5D370BD2DE9F04180460F460024203A83
:10388000D5B2B8F17F0F02D9A046BF1CFFB2102BF2
:1038900011D039464046FFF784FF5A4905EB4500F1
:1038A00001EB40050121285DFFF741FF641CE4B2F4
:1038B000062CF7D308E739464046FFF772FF524E11
:1038C00004EB05100121305CFFF731FF641CE4B20A
:1038D000082CF5D37F1CF9B24046FFF762FF0024A5
:1038E00004EB051030440121007AFFF720FF641C2F
:1038F000E4B2082CF4D3E7E60346012000E0584385
:10390000491EC9B2FBD270472DE9F05F8046DDF851
:1039100028A08B4691461D46002600244FEA5A07F0
:103920001DE0281B401EC1B20A20FFF7E5FFB9FBCE
:10393000F0F00A21B0FBF1F201FB120026B9691E7A
:103940008C4201DA78B101263030C2B207FB048024
:10395000C0B253465946FFF78DFF641CE4B2AC4237
:10396000DFD3BDE8F09F07FB0480C0B2534620229E
:103970005946FFF77FFFF0E72DE9F04104460E4678
:1039800015461F460CE03B4631462046FFF772FFC6
:103990000834E4B2782C02D90024B61CF6B26D1CAF
:1039A0002A78002AEFD18FE62DE9F0478146884634
:1039B000174641464846FFF7F4FE0024134E06EB37
:1039C00087150121285DFFF7B2FE641CE4B2102CBC
:1039D000F7D308F1010808F0FF014846FFF7E1FEC0
:1039E0000024012000EB470006EB40150121285D73
:1039F000FFF79DFE641CE4B2102CF7D3BDE8F087FE
:103A0000000C0140BE8C0008E68E00088D000020EE
:103A10002DE9F0478246DDF820900E4690461F467D
:103A20000025780712E031465046FFF7BAFE5446AB
:103A300008E028466D1C19F800000121FFF777FE09
:103A4000641CE4B24445F4D3761CF6B2BE42EAD319
:103A5000D4E72DE9FF5F84B08346DDF848A0144623
:103A60001D464FF000090126CDF80490CDF80890CE
:103A7000CDF80C90B046002213462046294603F0AC
:103A80003DFC06D2204685F0004103F0AFFB07461F
:103A900004E02046294603F0A9FB0746384603F018
:103AA00002FC22462B4603F063FD0022FE4B03F08E
:103AB00061FC03F0CBFB01460A2005E008EB88021D
:103AC0004FEA4208761CF6B297FBF0F292FBF8F24E
:103AD000002AF3D142F2107297FBF2F292FBF0F35C
:103AE00000FB13228DF804204FF47A7297FBF2F357
:103AF00093FBF0FC00FB1C338DF80530642397FB2F
:103B0000F3FC9CFBF0F800FB18CC8DF806C097FB8B
:103B1000F0FC9CFBF0F800FB18CC8DF807C097FB7D
:103B2000F0FC00FB1C778DF808704FF02E088DF824
:103B30000980B1FBF2F2B2FBF0F700FB17228DF81F
:103B40000A20B1FBF3F2B2FBF0F300FB13228DF875
:103B50000B20B1FBF0F2B2FBF0F300FB13228DF867
:103B60000C20B1FBF0F200FB12108DF80D0001AF3C
:103B7000BA448AF806900020395C30313954401C30
:103B80000A28F9DB002213462046294603F0B6FB3B
:103B900005D2761CF6B2C6F105012D2078548DF8B9
:103BA00009808AF80690C6F10500C2190C2359460F
:103BB0000598FFF7E1FE08B0D3E62DE9FF5F84B07A
:103BC0001446DDE912BA1D464FF00008CDF8048016
:103BD000CDF80880CDF80C800126C8064FEA1069A0
:103BE0002046294603F002FB0746384603F072FBE5
:103BF00022462B4603F0BCFC0022AB4B03F0BAFB81
:103C000003F024FB01460A2002E006EB8602560080
:103C1000B7FBF0F2B2FBF6F2002AF6D142F21072D4
:103C2000B7FBF2F2B2FBF0F300FB13228DF8042095
:103C30004FF47A74B7FBF4F2B2FBF0F300FB1322FB
:103C40008DF805206425B7FBF5F2B2FBF0F300FB1D
:103C500013228DF80620B7FBF0F2B2FBF0F300FB65
:103C600013228DF807202E238DF80930B1FBF4F2D2
:103C7000B2FBF0F400FB14228DF80A20B1FBF5F240
:103C8000B2FBF0F400FB14228DF80B20B1FBF0F234
:103C9000B2FBF0F400FB14228DF80C20B1FBF0F223
:103CA00000FB12108DF80D0001A901EB0A0484F845
:103CB000068000200A5C30320A54401C0A28F9DBD6
:103CC0008DF8093084F80680CBF1050042180C23EA
:103CD00048460499FFF750FE6DE770B5154600247D
:103CE00000EB40004006000EFFF75BFD10356F490A
:103CF00005EB450001EB40050121285DFFF717FDAD
:103D0000641C062CF8DB70BD70B51546002400EB72
:103D100040004006000EFFF744FD644905EB4500F6
:103D200001EB40050121285DFFF701FD641C062C15
:103D3000F8DB70BD2DE9F0410F4664210A26441CD2
:103D4000851C002A1CDA534293FBF1F201FB12316D
:103D500091FBF6F101F0FF0893FBF6F106FB113140
:103D6000CEB20D223946FFF7CFFFE0B242463946C8
:103D7000FFF7B3FFE8B232463946BDE8F041ACE7A1
:103D800092FBF1F301FB132191FBF6F101F0FF0827
:103D900092FBF6F106FB1121CEB20B223946FFF75A
:103DA000B3FFE0B242463946FFF797FFE8B232462A
:103DB0003946BDE8F04190E72DE9F0478A461446C0
:103DC000C51C861C471C4FF00A084FF06409002CE4
:103DD00023DA64420D225146FFF796FF94FBF8F078
:103DE00008FB1040C2B294FBF8F090FBF8F108FB1E
:103DF000110000F0FF0894FBF9F0C4B2E8B251469C
:103E0000FFF76BFFF0B242465146FFF766FFF8B28C
:103E100022465146BDE8F0475FE70B225146FFF7C7
:103E200073FF94FBF8F008FB1040C2B294FBF8F06B
:103E300090FBF8F108FB110000F0FF0894FBF9F08B
:103E4000C4B2E8B25146FFF748FFF0B242465146CD
:103E5000FFF743FFF8B222465146BDE8F0473CE782
:103E60002DE9F04104460D46002A00DA52424FF493
:103E70007A7092FBF0F1C9B292FBF0F300FB1323CE
:103E8000642093FBF0F3DEB292FBF0F300FB13230C
:103E90000A2093FBF0F3DFB292FBF0F300FB132058
:103EA00000F0FF080A4603E00088C340BE8C00080B
:103EB00029462046FFF711FF601CC0B23246294652
:103EC000FFF70BFFA01CC0B23A462946FFF705FFDB
:103ED000E41CE0B242462946BDE8F041FDE62DE98A
:103EE000F04704460D4642F21070B2FBF0F1C9B241
:103EF000B2FBF0F300FB13234FF47A70B3FBF0F343
:103F0000DEB2B2FBF0F300FB13236420B3FBF0F34B
:103F1000DFB2B2FBF0F300FB13230A20B3FBF0F88F
:103F2000B2FBF0F300FB13290A4629462046FFF7AF
:103F3000D4FE601CC0B232462946FFF7CEFEA01C5C
:103F4000C0B23A462946FFF7C8FEE01CC0B242465E
:103F50002946FFF7C2FE241DE0B24A462946BDE8C5
:103F6000F047BAE638B50121092000F0CEFF012163
:103F7000434800F055FE4FF44074ADF80040102067
:103F80008DF8030003208DF802003E4D6946284657
:103F900000F0B5FD2146284600F020FE4FF44870A1
:103FA000FCF744FB0021AE20FFF7C1FB00210846CF
:103FB000FFF7BDFB00211020FFF7B9FB00214020D7
:103FC000FFF7B5FB0021B020FFF7B1FB00218120F6
:103FD000FFF7ADFB0021FF20FFF7A9FB0021A12087
:103FE000FFF7A5FB0021A620FFF7A1FB0021A820D9
:103FF000FFF79DFB00213F20FFF799FB0021C82020
:10400000FFF795FB0021D320FFF791FB0021084625
:10401000FFF78DFB0021D520FFF789FB00218020D1
:10402000FFF785FB0021D820FFF781FB0021052049
:10403000FFF77DFB0021D920FFF779FB0021F1205C
:10404000FFF775FB0021DA20FFF771FB002112203A
:10405000FFF76DFB0021DB20FFF769FB002130201B
:10406000FFF765FB00218D20FFF761FB0021142085
:10407000FFF75DFB0021AF20FFF759FB38BD0000C3
:1040800000023000000C014070B50646084603F0FF
:10409000DDFD9C4D296A03F005FE0446304603F021
:1040A000D5FDE96903F0FEFD214603F069FCBDE89A
:1040B000704003F08FBD2DE9F0410F4606461146D2
:1040C000904C206903F0EEFD05463946304603F07A
:1040D000B5FEE16803F0E6FD294603F051FCBDE8BA
:1040E000F04103F077BD70B5874C11440E1A854D31
:1040F000A86A03F0ABFD214603F0D4FD0446304628
:1041000003F0A4FD0146814803F0CCFD214603F0F5
:1041100037FC03F05FFD0446AC62696A0819686207
:1041200044F62061884201DD084603E07849884270
:1041300000DA0846686277480178012902D1002137
:1041400069620170686A03F081FDA96903F0AAFD44
:104150000646204603F07AFD696903F0A3FD314667
:1041600003F00EFC03F036FDE86270BD2DE9F05F50
:10417000202000F044FC002872D067480068002826
:104180006ED1202000F049FC022000F087F9DFF812
:104190008CA14042CAF80000042000F07FF9DFF84B
:1041A00080B1CBF800005F4A5F496048FEF76EFBC4
:1041B0005F4A60496048FCF7FCFC604A604961481E
:1041C000FCF719FD604861494E4D00780C784FF0BE
:1041D000000850EA040101D1C5F804804FF07E5672
:1041E00001280ED15A480068322805DA314668683D
:1041F00003F0C6FB686004E03146686803F028FEFF
:104200006860012C04D13146686803F0B9FB68602E
:1042100050486C68844201DD044603E04E48844205
:1042200000D904466C604D4806784D48077856EA38
:10423000070901D1C5F80880012E04D14949A868B1
:1042400003F09EFBA860012F04D14649A86803F043
:10425000FFFDA8604449A868884202DD084604E0E2
:104260004DE04249884200D90846A860B9F1000FE4
:1042700004D0012E05D0012F03D004E03C48E861B2
:1042800001E0C5F81C80204603F0A4FCDBF8002008
:10429000DAF80010FFF727FF0446E8632648B0F974
:1042A000000003F0D3FC0646204603F0CFFC29684B
:1042B00003F066FB1C4932460968FFF7FCFEA86361
:1042C000A86803F087FC01461948B0F90000FFF721
:1042D000DBFE2864A96B274C0A1A2260264D08448D
:1042E00028602946204600F055F92968206800F02A
:1042F0006DF9BDE8F05F0C49024800F094B9BDE8E3
:10430000F09F0000100400203333333F9A99993E08
:10431000E0B1FFFF55040020148121420C00002071
:104320001000002020000020080000201C000020B9
:104330002800002024000020260000202E0000205D
:104340002C0000202A0000205604002057040020E2
:104350000400002000002042000020C25804002079
:10436000590400200000F0410000C8420000C8C20B
:104370009A99193F300000203400002010B588B011
:104380000121042000F0C1FD0121084600F0C8FD14
:1043900004208DF81F000320ADF81C0007A95D481C
:1043A00000F0ADFB04A801F09CF90020ADF8160068
:1043B000ADF812004FF6FF71ADF81410ADF8100013
:1043C0004FF0804404A9204600F0DEFE00231A4688
:1043D0000321204601F043FA01A801F095F90A21D2
:1043E000ADF80C1001A9204601F0FCF8012211469D
:1043F000204601F0B4F90021204601F0B7FB01216D
:10440000204601F092F908B010BD10B588B0012126
:10441000082000F07AFD0121042000F081FD042035
:104420008DF81F00C020ADF81C0007A93A4800F025
:1044300066FB04A801F055F90020ADF81600ADF8B0
:1044400012004FF6FF71ADF81410ADF81000334CA8
:1044500004A9204600F098FE00231A4603212046B6
:1044600001F0FDF901A801F04FF90A21ADF80C1097
:1044700001A9204601F0B6F80121204601F09FFB7A
:1044800001221146204601F06AF90021204601F080
:104490006DFB0121204601F048F9B4E770B5022810
:1044A00004D004280DD00024204670BD4FF0804574
:1044B000284601F079FB04B20021284601F056FBA2
:1044C000F2E7164D284601F06FFB04B200212846A2
:1044D00001F04CFBE8E710B501218C07204601F004
:1044E00071FB002805D02046BDE81040012101F0F5
:1044F00075BB10BD10B5094C0121204601F062FBCF
:10450000002805D02046BDE81040012101F066BB1F
:1045100010BD000000080140000C014000080040F0
:104520003EB50121092000F0F0FC48208DF8030081
:104530002024ADF8004003208DF8020069460A48A7
:1045400000F0DDFA0521012000F095FB0194012027
:104550008DF80A0000208DF808000C208DF8090065
:1045600001A800F0FBF93EBD000C014008B5012197
:10457000082000F0CAFC10208DF803004FF47040B2
:10458000ADF8000003208DF802006946304800F0C5
:10459000B6FA08BD30B52F4B04681A68944200DDA6
:1045A00002602D4C05682268954200DA02600A68B4
:1045B0001868824200DD08600A682068824200DADA
:1045C000086030BD002800DC404270472DE9F04112
:1045D0000F4600250126214C002804DDC4F8B861EF
:1045E000C4F8BC5103E0C4F8B851C4F8BC61FFF78B
:1045F000E9FFDFF86C8081B2404601F0BBFA002F82
:1046000004DDC4F8B461C4F8B05103E0C4F8B45197
:10461000C4F8B0613846FFF7D5FF81B24046BDE827
:10462000F04101F0ADBA10B50A460168106803F018
:104630000FFC03F0CFFAFFF7C5FF3C2806DD094C5D
:1046400021780846FFF7C2FF0120607010BD00000E
:10465000000C0140140000201800002000802142BE
:10466000002C01405404002070B588B006460D4669
:10467000012140F6050000F048FC18228DF81F20AB
:104680004FF41062ADF81C2003228DF81E2007A9FC
:104690001D4800F034FA04A801F023F80024ADF816
:1046A0001640ADF81240ADF81450ADF81060174D3B
:1046B00004A9284600F068FD6021ADF80010ADF8AF
:1046C00008400121ADF80210ADF8064069462846C1
:1046D00000F093FD6946284600F046FE0121284679
:1046E00001F02FF80821284601F022F90821284678
:1046F00001F034F90121284601F0EAF801212846A9
:1047000001F013F808B070BD00080140002C014012
:1047100030B585B004460121082000F0F6FB0121E8
:10472000880400F0FDFB4FF48060ADF8100003201A
:104730008DF8120018208DF81300404D04A928466A
:1047400000F0DDF9E814ADF8100004208DF8130036
:1047500004A9284600F0D3F900940020ADF8040025
:10476000ADF80600ADF80800ADF80C000C20ADF86F
:104770000A00334C6946204601F07CFA012240F2DF
:104780002551204601F0FDFA0121204601F0EDFA05
:1047900005B030BD10B52A4C40F22551204601F03D
:1047A000BDFB002812D0204601F044FB2549002221
:1047B00068B1012301280FD0052812D0072815D091
:1047C000032818D00A704A708A70CA7010BD0A7027
:1047D0004A708A70CA7010BD0B704A708A70CA70B5
:1047E00010BD0A704B708A70CA7010BD0A704A7092
:1047F0008A70CB7010BD0A704A708B70CA7010BD81
:1048000010B50F4C0146204601F010FB4021204618
:1048100001F079FB0128F9D110BD70B50546284695
:1048200001F038FD86B2002405E015F8010BFFF712
:10483000E7FF641CA4B2B442F7D370BD000C014082
:1048400000480040560400200948804709480047B6
:10485000FEE7FEE7FEE7FEE7FEE7FEE7FEE7FEE730
:10486000FEE7FEE704480549054A064B704700008D
:1048700005050008ED00000820050020200B0020A1
:1048800020070020200700202A4908432A49086001
:10489000704770B50F23C27801260178002A1ED018
:1048A000254A126802F4E062C2F5E062120AC2F11F
:1048B0000404D3404578A54082781A402A43120167
:1048C00001F1E02181F80024007800F01F018E4002
:1048D0004009800000F1E020C0F8006170BD01F0E7
:1048E0001F0086404809800000F1E020C0F8806188
:1048F00070BD124A114001430F48001F016070470C
:104900000D4A121D002903D0116801431160704740
:1049100011688143116070474FF0E021042804D0F2
:10492000086920F0040008617047086940F004003D
:10493000086170470000FA050CED00E080FFFF1FE2
:10494000384900200860091D0860091D0860091D1C
:1049500008603449344814310860704730B5314A32
:1049600083790168002B2AD013688B431360111DD3
:104970000B680468A3430B60017911440B68046859
:1049800023430B60274C0834216803689943216056
:10499000231D19680568A94319604179102905D0BC
:1049A00011440A68006802430A6030BD2168026849
:1049B00011432160196800680143196030BD007916
:1049C000104402688A43026030BD00210160017119
:1049D0000C22427181717047124910310A680243FA
:1049E0000A607047014600200E4A143212680A42DB
:1049F00000D0012070470B49143108607047014610
:104A00000020084A12680A40064B14331B680B4208
:104A100002D0002A00D001207047024914310860FA
:104A20007047000000040140FFFF0F0010B59C49D3
:104A3000884209D10121042000F07DFA0021BDE85F
:104A40001040042000F077BA9649884209D101212C
:104A5000082000F070FA0021BDE81040082000F0A6
:104A60006ABA9149884209D10121102000F063FA05
:104A70000021BDE81040102000F05DBA8B4988424B
:104A800009D10121202000F056FA0021BDE8104094
:104A9000202000F050BA8649884209D101214020E7
:104AA00000F049FA0021BDE81040402000F043BA70
:104AB0008049884209D10121802000F03CFA002180
:104AC000BDE81040802000F036BA7B4988420AD108
:104AD00084150121204600F02EFA2046BDE8104042
:104AE000002100F028BA10BD10B50121084600F0E1
:104AF00022FA0021BDE81040012000F01CBA2DE987
:104B0000F0410022CC7804F00F03E40601D58C7844
:104B100023430C784FF00F0714F0FF0F4FF0010CF8
:104B20001CD005680CFA02F40E882640A64211D16A
:104B3000960007FA06F825EA080503FA06F848EA97
:104B40000505CE78282E02D0482E02D002E044611E
:104B500000E00461521C082AE4D305600A88FF2A99
:104B60001ED94568002202F108060CFA06F40E88E8
:104B70002640A64210D1960007FA06F825EA080555
:104B800003FA06F848EA0505CE78282E00D14461DC
:104B9000CE78482E00D10461521C082AE3D3456028
:104BA000BDE8F0814FF6FF71018002218170042180
:104BB000C17070470246002092680A4200D001206E
:104BC0007047806880B2704702460020D2680A426F
:104BD00000D001207047C06880B270470161704703
:104BE00041617047002A01D00161704741617047FF
:104BF000C160704741F48032826181618261816964
:104C00008069704710B52D4B1A684FF680742240AA
:104C100042EA00100843186010BD2949C861704776
:104C2000F0B5264C002801DAE36900E06368C0F3C0
:104C30000346420D120185B2C0F301579540032F80
:104C400007D0C2020CD50322B240934343F07062F6
:104C500009E023F07062636823F07063636002E030
:104C6000AB4343F0706201B12A43002801DAE261EC
:104C7000F0BD6260F0BD10B58A07120F0F2393409C
:104C800021F003040D4921448C689C438C608B689F
:104C9000904003438B6010BD0949DC3108607047C8
:104CA00000080140000C01400010014000140140C8
:104CB00000180140001C014000200140000001409C
:104CC00000002042B448016841F0010101604168E0
:104CD000B24A114041600168B14A11400160016867
:104CE00021F480210160416821F4FE0141604FF40C
:104CF0001F0181607047A8490A6822F480320A6067
:104D00000A6822F480220A60B0F5803F07D0B0F52F
:104D1000802F03D1086840F4A0200860704708681D
:104D200040F48030086070470346002059099A4AD1
:104D300001290AD002290AD0516A03F01F02012377
:104D400093400B4200D0012070471168F5E7116ACB
:104D5000F3E718B5002000904FF4A0643120FFF76E
:104D6000E3FF0099491C00910099A14201D000285D
:104D7000F4D03120FFF7D8FF08B1012018BD002082
:104D800018BD854A116821F0F80141EAC0001060A1
:104D900070478449086070477F4B5A6822F47C1240
:104DA00008431043586070477E49086670477A4A46
:104DB000516821F003010143516070477648406813
:104DC00000F00C007047744A516821F0F001014373
:104DD00051607047704A516821F4E06101435160AD
:104DE00070476D4A516821F4605141EAC00050603B
:104DF0007047694A002903D0517A014351727047C4
:104E0000517A8143517270476649D83108607047C2
:104E1000614A516821F440410143516070475E4945
:104E2000002220310A7001F82029012805D0042829
:104E300002D1052081F820007047012081F8200070
:104E4000704759490860704753490A6A02430A6229
:104E50007047554944390860704710B54E4A51684B
:104E600001F00C01514B002927D0042927D0082933
:104E700027D00360516801F0F00109094C4B5C5CDC
:104E80000168E1404160546804F4E064240A1C5D58
:104E900021FA04F48460546804F46054E40A1B5D4D
:104EA000D940C160526802F44042920B404B1B1F34
:104EB0009A5CB1FBF2F1016110BD0360DAE70360B7
:104EC000D8E7516801F47011536803F48033022469
:104ED00004EB914133B153689B0307D5354B5943DC
:104EE0000160C7E7334B59430160C3E72F4B594378
:104EF0000160BFE7284A002903D05169014351618D
:104F000070475169814351617047234A002903D09A
:104F10009169014391617047916981439161704743
:104F20001D4A002903D0D1690143D1617047D1697D
:104F30008143D1617047184A002903D0D1680143E9
:104F4000D1607047D1688143D1607047124A00290F
:104F500003D01169014311617047116981431161E7
:104F6000704711494039086070470E49C86470475E
:104F70000949C87170470848416A41F0807141622F
:104F8000704701460020044A92680A4200D001207E
:104F90007047014988727047001002400000FFF816
:104FA000FFFFF6FE000042428004424200127A00F7
:104FB0005E04002000093D0010B5FE4988420AD178
:104FC000C41401212046FFF7B6FF2046BDE810407B
:104FD0000021FFF7B0BFB0F1804F0CD0F6498842F6
:104FE00013D101210220FFF7B1FF0021BDE81040DD
:104FF0000220FFF7ABBF01210846FFF7A7FF002102
:10500000BDE810400120FFF7A1BFEC49884209D15B
:1050100001210420FFF79AFF0021BDE81040042081
:10502000FFF794BFE649884209D101210820FFF724
:105030008DFF0021BDE810400820FFF787BFE14940
:10504000884209D101211020FFF780FF0021BDE82F
:1050500010401020FFF77ABFDB49884209D10121B7
:105060002020FFF773FF0021BDE810402020FFF74C
:105070006DBFD64988420AD1441401212046FFF76A
:105080005AFF2046BDE810400021FFF754BFD04929
:1050900088420AD10121CC042046FFF74CFF20466C
:1050A000BDE810400021FFF746BFCA4988420AD137
:1050B00001210C052046FFF73EFF2046BDE81040C9
:1050C0000021FFF738BFC44988420AD101214C05AD
:1050D0002046FFF730FF2046BDE810400021FFF7D3
:1050E0002ABFBE49884209D101214020FFF72EFF87
:1050F0000021BDE810404020FFF728BFB849884292
:1051000009D101218020FFF721FF0021BDE81040D7
:105110008020FFF71BBFB34988420AD184150121C3
:105120002046FFF713FF2046BDE810400021FFF79F
:105130000DBFAD4988420AD101210C042046FFF77A
:10514000FAFE2046BDE810400021FFF7F4BEA74953
:1051500088420AD101214C042046FFF7ECFE20468C
:10516000BDE810400021FFF7E6BEA14988420AD100
:1051700001218C042046FFF7DEFE2046BDE81040EA
:105180000021FFF7D8BE10BD30B50288894C8F4D85
:10519000A0420DD0A8420BD0B0F1804F08D0864B72
:1051A000984205D0854B984202D0854B984203D156
:1051B00022F070034A881A43824B984206D0824BF1
:1051C000984203D022F44073CA881A4302808A8826
:1051D00082850A880285A0420AD0A84208D0824A65
:1051E000904205D0814A904202D0814A904201D13A
:1051F000097A01860121818230BD30B5028C22F00E
:1052000001020284028C8388048B24F0700424F051
:1052100003050C882C4322F002020D8915434A88AD
:105220002A43644DA8420BD0684DA84208D06E4D69
:10523000A84205D06D4DA84202D06D4DA8420FD1B5
:1052400022F008054A892A4322F004058A882A4365
:1052500023F4807323F400738D891D43CB892B4382
:1052600083800483C9888186028430BD70B5028C36
:1052700022F010020284028C8388048B24F4E04420
:1052800024F440760D884FF6FF7404EA0525354373
:1052900022F020020E8904EA061616434A8804EA20
:1052A00002123243434EB04202D0484EB04217D1B0
:1052B00022F080024E8904EA0616164326F04006C4
:1052C0008A8804EA0212324323F4806323F40063E1
:1052D0008E8904EA86061E43CB8904EA830333439E
:1052E00083800583C9880187028470BD70B5028CF4
:1052F00022F480720284028C8388848B24F07004F0
:1053000024F003040D88254322F400720E894FF621
:10531000FF7404EA062616434A8804EA022232434E
:10532000244EB04202D0294EB04217D122F400667A
:105330004A8904EA0222324322F480668A8804EA17
:105340000222324323F4805323F400538E8904EA6B
:1053500006161E43CB8904EA0313334383808583F7
:10536000C9888187028470BD70B5028C22F4805296
:105370000284058C8288838B23F4E04323F44076F7
:105380000C884FF6FF7303EA0424344325F40055D8
:105390000E8903EA06362E434D8803EA0535354368
:1053A000044EB04202D0094EB04226D122F48046CB
:1053B0008A891FE0002C01400004004000080040E2
:1053C000000C004000100040001400400034014078
:1053D000004C0140005001400054014000180040C2
:1053E000001C0040002000400040014000440140FB
:1053F0000048014003EA8212324382808483C988D4
:10540000A0F84010058470BD828B22F44062828334
:10541000828B4FF6FF7303EA01210A4382837047B0
:10542000F0B5048C24F480540484868B048C4FF6ED
:10543000FF7505EA013726F4734605EA0222324376
:1054400005EA03331343F74A90420ED0F64A9042DE
:105450000BD0B0F1804F08D0F44A904205D0F44A06
:10546000904202D0F34A904205D124F400513943CE
:1054700041F4805104E024F402420A4342F4805192
:1054800083830184F0BD828B22F00C028283828BA5
:105490000A4382837047F0B5048C24F4807404843A
:1054A000858B048C4FF6FF7707EA012625F0F3057C
:1054B00007EA031313432B43DA4A90420ED0DA4A29
:1054C00090420BD0B0F1804F08D0D84A904205D01E
:1054D000D74A904202D0D74A904205D124F40071B5
:1054E000314341F4807104E024F420620A4342F421
:1054F000807183830184F0BD028B22F440620283B9
:10550000028B4FF6FF7303EA01210A4302837047BF
:10551000F0B5048C24F010040484068B048C4FF640
:10552000FF7505EA011726F4734605EA0333334392
:1055300005EA02221A43BB4B98420ED0BA4B98425E
:105540000BD0B0F1804F08D0B84B984205D0B84B83
:10555000984202D0B74B984205D124F0200139433C
:1055600041F0100104E024F0A0030B4343F01001CC
:1055700002830184F0BD028B22F00C020283028BB5
:105580000A430283704770B5048C24F0010404843C
:10559000058B048C25F0F3054FF6FF7606EA03131E
:1055A00013432B439F4A90420ED09F4A90420BD008
:1055B000B0F1804F08D09D4A904205D09C4A90425D
:1055C00002D09C4A904205D124F002020A4342F0E4
:1055D000010104E024F00A020A4342F001010383BE
:1055E000018470BD70B505460C468E48854209D0D1
:1055F0008D48854206D0B5F1804F03D08B48854257
:1056000000D08B4820886188A288238958B104285B
:1056100011D0082817D02846FFF702FFE188284656
:10562000BDE87040F0E62846FFF7ADFFE188284668
:10563000BDE870409FE72846FFF76AFFE1882846EB
:10564000BDE8704058E72846FFF725FFE188284667
:10565000BDE8704017E72DE9F04107460C460025EC
:1056600001266188002900D10225A288012A00D1E3
:1056700002262088238988B13846FFF749FFE18850
:105680003846FFF739FF2389324629463846FFF767
:105690007AFFE1883846BDE8F0416CE73846FFF70D
:1056A00072FFE1883846FFF766FF238932462946B4
:1056B0003846FFF72DFFE1883846BDE8F0411BE78B
:1056C00010B50A884B88CC881A438B8823431A4329
:1056D0000B891A434B8989891A430A43A0F844204D
:1056E00010BD4FF6FF71818000210180C180418093
:1056F000017270470021018041808180C180018159
:1057000041818181C1817047002101804180012256
:105710008280C180018170470021018041808180A9
:10572000C1800181418181817047002904D00188B5
:1057300041F0010101807047018821F001010180E1
:105740007047002905D030F8441F41F40041018022
:10575000704730F8441FC1F30E0101807047002AE2
:1057600003D082890A438281704782898A43828179
:105770007047818270471143A0F848107047002A93
:1057800003D082890A438281704782898A43828159
:105790007047018921F0070101817047028922F0D9
:1057A00070020A430281704700B503461846FFF7AE
:1057B000F5FF188940F00700188100BD70B50D464F
:1057C00004461146602D0CD001222046FFF7DBFE77
:1057D00029462046FFF7E2FF208940F0070020819C
:1057E00070BD01222046FFF793FEF1E730B5048932
:1057F000E4B24FF6FF7505EA032313430B4323433B
:10580000038130BD10B504462046FFF7EFFF208925
:1058100020F0070040F0070020F0700040F070001A
:10582000208110BD002C01400034014000040040E4
:1058300000080040000C004010B504462046FFF769
:10584000D5FF208940F480402081EAE701858282EB
:105850007047028822F070020A430280704770B5D8
:105860000589048B068C25F007050D434FF6FC4196
:105870000C4040F201110C4326F022064FF6FF7156
:1058800001EA03111143314305810483018470BD92
:10589000028B22F070020A4302837047028B22F4CB
:1058A000E0424FF6FF7303EA012111430183704781
:1058B000828B22F070020A4382837047828B22F42B
:1058C000E0424FF6FF7303EA0121114381837047E1
:1058D000002904D0018841F08001018070470188CF
:1058E00021F0800101807047002904D0818841F0B7
:1058F000040181807047818821F004018180704714
:10590000002904D0818841F0080181807047818896
:1059100021F0080181807047002904D0818841F07E
:10592000010181807047818821F0010181807047E9
:10593000028B22F008020A4302837047028B22F492
:1059400000624FF6FF7303EA0121114301837047A0
:10595000828B22F008020A4382837047828B22F4F2
:1059600000624FF6FF7303EA012111438183704700
:10597000028B22F004020A4302837047028B22F456
:1059800080624FF6FF7303EA0121114301837047E0
:10599000828B22F004020A4382837047828B22F4B6
:1059A00080624FF6FF7303EA012111438183704740
:1059B000028B22F080020A4302837047028BC2F3FB
:1059C0000E024FF6FF7303EA012111430183704772
:1059D000828B22F080020A4382837047828BC2F35B
:1059E0000E024FF6FF7303EA0121114381837047D2
:1059F000028C22F002020A4302847047028C22F0D9
:105A000008020A4302847047028C22F020024FF6FB
:105A1000FF7303EA0111114301847047028C22F0E5
:105A200080024FF6FF7303EA0111114301847047AE
:105A3000028C22F400724FF6FF7303EA0121114336
:105A400001847047028C22F400624FF6FF7303EA70
:105A50000121114301847047028C22F400524FF659
:105A6000FF7303EA013111430184704710B501232C
:105A70008B40048C9C430484038C8A40134303842E
:105A8000CFE610B504238B40048C9C430484038C24
:105A90008A4013430384C4E630B500F1180301249F
:105AA0008C40058CA5430584002911D008290FD00E
:105AB000091FC1F34E001844016821F4E041016060
:105AC00001684FF6FF7303EA02221143016030BD03
:105AD00003EB5100016821F070010160016811437E
